:1000000012C02CC02BC02AC029C028C027C026C0BF
:1000100025C024C023C022C021C020C01FC01EC0D4
:100020001DC01CC01BC011241FBECFE5D4E0DEBF25
:10003000CDBF10E0A0E6B0E0EAEAFFE002C0059024
:100040000D92AC39B107D9F720E0ACE9B0E001C0BE
:100050001D92A03DB207E1F716D0A5C7D1CFAB01E5
:10006000BC01411551056105710561F080E090E02A
:10007000DC0100000196A11DB11D481759076A0750
:100080007B07B9F70895CF93DF9300D000D0CDB7A9
:10009000DEB7AEE6B0E012962D913C911397149620
:1000A0008C9114970F2EFBEC8F2EF0E09F2EF02DED
:1000B0004D915C91D40111965C934E9313963C93B1
:1000C0002E93129714968C9349E650E020916B0082
:1000D00030916C0080916D00A7EBB0E0FA01408197
:1000E000518111965C934E9313963C932E931297E5
:1000F00014968C93149784E690E0FC01428153811E
:1001000024810F2EF8EA6F2EF0E07F2EF02D8081F3
:100110009181F301918380835093AB004093AA00B7
:100120002093AC002CE830E0F901628173814481B6
:1001300081EC90E020813181FC0131832083738345
:100140006283448347E850E0FA01028113816481AD
:1001500026EC30E040815181F901518340831383C3
:100160000283648362E870E0FB01E280F380148123
:1001700042EB50E060817181FA0171836083F38208
:10018000E28214830DE710E0F801C280D380F4808E
:100190006CEB70E000811181FB0111830083D3823D
:1001A000C282F4820F2EF8E7EF2EF0E0FF2EF02D42
:1001B000F70100811181C280D380B4800F2EFDEA47
:1001C000EF2EF0E0FF2EF02DF70111830083D38294
:1001D000C282B482EB2CE094F801F080FE20BF28AC
:1001E000B082FB01008111816481F62EF094F80148
:1001F00070817F21672B6083FA0160817181448166
:10020000142F1095FB0150815123452B4083F90198
:10021000408151812481622F6095FA01308136231B
:10022000232B2083FC01208131818481482F40953C
:10023000F90190819423892B8083F30120813181FE
:100240008091AC00482F4095F90190819423892B2F
:1002500080834D915C91119714968C91282F209555
:10026000DA019C919223892B8C93F401A081B181B6
:100270008481282F20959C919223892B8C93E3E7EE
:10028000F0E0A081B1818481982F90958C91892391
:100290008C93A281B3818481982F90958C9189232E
:1002A0008C9383E687B987EE86B9A6E9B0E0ED9135
:1002B000FC91119714968C91282F20959081922370
:1002C000892B8083A1E9B0E0ED91FC911197149600
:1002D0008C91282F209590819223892B80830F2E3B
:1002E000FDEAEF2EF0E0FF2EF02D0CEB10E00F2ECC
:1002F000F6ECCF2EF0E0DF2EF02D240133243394E2
:1003000068E070E080E090E0AADE75B08090600068
:1003100090906100A0906200B0906300A5019401EC
:1003200060E070E080E89FE3BCD42091A0003091B1
:10033000A1004091A2005091A300D2D569837A8395
:100340008B839C83672D70E080E090E015D5A5013C
:100350009401C6D59B01AC0169817A818B819C8116
:10036000A1D46093A4007093A5008093A6009093FD
:10037000A70020E030E040E251E4F8D418160CF475
:1003800058C0D7011296ED91FC91139714968C9159
:100390008095908189238083D8011296ED91FC91FC
:1003A000139714968C918095908189238083E09196
:1003B000B400F091B5008091B600809590818923BA
:1003C0008083D6011296ED91FC91139714968C912F
:1003D0008095908189238083E091C300F091C400CF
:1003E0008091C5008095908189238083E091AA0047
:1003F000F091AB008091AC0080959081892380833F
:10040000E091B900F091BA008091BB008095908195
:1004100089238083D2011296ED91FC911397149653
:100420008C91809590818923808310929D001092F9
:100430009C008090A4009090A500A090A600B09091
:10044000A700732C20E030E040E251E4C501B40184
:1004500043D518160CF0712C772009F46AC0732C60
:1004600020E030E040EF51E4C501B4017FD418161C
:100470000CF4712C772009F45CC0D7011296ED9131
:10048000FC91139714962C91822F8095908189234B
:10049000822B8083D8011296ED91FC9113971496CC
:1004A0008C918095908189238083E091B400F091B4
:1004B000B5008091B6008095908189238083D60114
:1004C0001296ED91FC91139714968C9180959081E2
:1004D00089238083E091C300F091C4008091C5001E
:1004E0008095908189238083E091AA00F091AB00F0
:1004F0008091AC008095908189238083E091B90040
:10050000F091BA008091BB0080959081892380830F
:10051000D2011296ED91FC91139714968C918095CF
:10052000908189238083EEE1F0E0F0939D00E093D9
:100530009C008090A4009090A500A090A600B09090
:10054000A700732C20E030E040EF51E4C501B40176
:10055000C3D418160CF0712C772009F46AC0732CE0
:1005600020E030E040E752E4C501B401FFD31816A3
:100570000CF4712C772009F45CC0D7011296ED9130
:10058000FC91139714968C91809590818923808398
:10059000D8011296ED91FC91139714968C91282F07
:1005A000209590819223892B8083E091B400F09173
:1005B000B5008091B6008095908189238083D60113
:1005C0001296ED91FC91139714968C9180959081E1
:1005D00089238083E091C300F091C4008091C5001D
:1005E0008095908189238083E091AA00F091AB00EF
:1005F0008091AC008095908189238083E091B9003F
:10060000F091BA008091BB0080959081892380830E
:10061000D2011296ED91FC91139714968C918095CE
:10062000908189238083ECE3F0E0F0939D00E093D8
:100630009C008090A4009090A500A090A600B0908F
:10064000A700732C20E030E040E752E4C501B4017C
:1006500043D418160CF0712C772009F46AC0732C5F
:1006600020E030E044EB52E4C501B4017FD318161A
:100670000CF4712C772009F45CC0D7011296ED912F
:10068000FC91139714968C91809590818923808397
:10069000D8011296ED91FC91139714968C91809548
:1006A000908189238083E091B400F091B50080911E
:1006B000B600282F209590819223892B8083D60124
:1006C0001296ED91FC91139714968C9180959081E0
:1006D00089238083E091C300F091C4008091C5001C
:1006E0008095908189238083E091AA00F091AB00EE
:1006F0008091AC008095908189238083E091B9003E
:10070000F091BA008091BB0080959081892380830D
:10071000D2011296ED91FC91139714968C918095CD
:10072000908189238083EAE5F0E0F0939D00E093D7
:100730009C008090A4009090A500A090A600B0908E
:10074000A700732C20E030E044EB52E4C501B40173
:10075000C3D318160CF0712C772009F46AC0732CDF
:1007600020E030E040EF52E4C501B401FFD218169A
:100770000CF4712C772009F45CC0D7011296ED912E
:10078000FC91139714968C91809590818923808396
:10079000D8011296ED91FC91139714968C91809547
:1007A000908189238083E091B400F091B50080911D
:1007B000B6008095908189238083D6011296ED91B1
:1007C000FC91139714968C91282F20959081922359
:1007D000892B8083E091C300F091C4008091C50013
:1007E0008095908189238083E091AA00F091AB00ED
:1007F0008091AC008095908189238083E091B9003D
:10080000F091BA008091BB0080959081892380830C
:10081000D2011296ED91FC91139714968C918095CC
:10082000908189238083E8E7F0E0F0939D00E093D6
:100830009C008090A4009090A500A090A600B0908D
:10084000A700732C20E030E040EF52E4C501B40172
:1008500043D318160CF0712C772009F46AC0732C5E
:1008600020E030E046E153E4C501B4017FD2181620
:100870000CF4712C772009F45CC0D7011296ED912D
:10088000FC91139714968C91809590818923808395
:10089000D8011296ED91FC91139714968C91809546
:1008A000908189238083E091B400F091B50080911C
:1008B000B6008095908189238083D6011296ED91B0
:1008C000FC91139714968C91809590818923808355
:1008D000E091C300F091C4008091C500282F2095BD
:1008E00090819223892B8083E091AA00F091AB0044
:1008F0008091AC008095908189238083E091B9003C
:10090000F091BA008091BB0080959081892380830B
:10091000D2011296ED91FC91139714968C918095CB
:1009200090818923808386E990E090939D00809355
:100930009C008090A4009090A500A090A600B0908C
:10094000A700732C20E030E046E153E4C501B40178
:10095000C3D218160CF0712C772009F46AC0732CDE
:1009600020E030E044E353E4C501B401FFD11816A0
:100970000CF4712C772009F45CC0D7011296ED912C
:10098000FC91139714968C91809590818923808394
:10099000D8011296ED91FC91139714968C91809545
:1009A000908189238083E091B400F091B50080911B
:1009B000B6008095908189238083D6011296ED91AF
:1009C000FC91139714968C91809590818923808354
:1009D000E091C300F091C4008091C50080959081A2
:1009E00089238083E091AA00F091AB008091AC0054
:1009F000282F209590819223892B8083E091B90044
:100A0000F091BA008091BB0080959081892380830A
:100A1000D2011296ED91FC91139714968C918095CA
:100A200090818923808384EB90E090939D00809354
:100A30009C008090A4009090A500A090A600B0908B
:100A4000A700732C20E030E044E353E4C501B40177
:100A500043D218160CF0712C772009F46AC0732C5D
:100A600020E030E042E553E4C501B4017FD118161F
:100A70000CF4712C772009F45CC0D7011296ED912B
:100A8000FC91139714968C91809590818923808393
:100A9000D8011296ED91FC91139714968C91809544
:100AA000908189238083E091B400F091B50080911A
:100AB000B6008095908189238083D6011296ED91AE
:100AC000FC91139714968C91809590818923808353
:100AD000E091C300F091C4008091C50080959081A1
:100AE00089238083E091AA00F091AB008091AC0053
:100AF0008095908189238083E091B900F091BA00BC
:100B00008091BB00282F209590819223892B808390
:100B1000D2011296ED91FC91139714968C918095C9
:100B200090818923808382ED90E090939D00809353
:100B30009C0020E030E042E553E46091A400709115
:100B4000A5008091A6009091A700C6D118160CF0C0
:100B50005CC0D7011296ED91FC91139714968C917D
:100B60008095908189238083D8011296ED91FC9124
:100B7000139714968C918095908189238083E091BE
:100B8000B400F091B5008091B600809590818923E2
:100B90008083D6011296ED91FC91139714968C9157
:100BA0008095908189238083E091C300F091C400F7
:100BB0008091C5008095908189238083E091AA006F
:100BC000F091AB008091AC00809590818923808367
:100BD000E091B900F091BA008091BB0080959081BE
:100BE00089238083D2011296ED91FC91139714967C
:100BF0008C91282F209590819223892B80838FEFD1
:100C000090E090939D0080939C008091A40090912F
:100C1000A500A091A600B091A7008093A00090939A
:100C2000A100A093A200B093A30080919E00909198
:100C30009F008F3F910529F024F010929F001092A1
:100C40009E0020919C0030919D0080919E0090918B
:100C50009F00821793076CF0A6E9B0E01296ED9121
:100C6000FC91139714968C918095908189238083B1
:100C70000EC0A6E9B0E01296ED91FC911397149680
:100C80008C91282F209590819223892B80838091AD
:100C90009E0090919F00019690939F0080939E00EC
:100CA0002FCB5058BB27AA270ED0DCC0CDD030F0B8
:100CB000D2D020F031F49F3F11F41EF4C2C00EF4E4
:100CC000E095E7FBB8C0E92FDED080F3BA176207E2
:100CD00073078407950718F071F49EF5F6C00EF4BB
:100CE000E0950B2EBA2FA02D0B01B90190010C013C
:100CF000CA01A0011124FF27591B99F0593F50F454
:100D0000503E68F11A16F040A22F232F342F4427AB
:100D1000585FF3CF469537952795A795F0405395A3
:100D2000C9F77EF41F16BA0B620B730B840BBAF073
:100D30009150A1F0FF0FBB1F661F771F881FC2F7DE
:100D40000EC0BA0F621F731F841F48F487957795F2
:100D50006795B795F7959E3F08F0B3CF9395880FA9
:100D600008F09927EE0F97958795089540D008F4DD
:100D700081E00895E89409C097FB3EF49095809532
:100D8000709561957F4F8F4F9F4F9923A9F0F92F51
:100D900096E9BB279395F695879577956795B795CF
:100DA000F111F8CFFAF4BB0F11F460FF1BC06F5FB5
:100DB0007F4F8F4F9F4F16C0882311F096E911C0C7
:100DC000772321F09EE8872F762F05C0662371F0E8
:100DD00096E8862F70E060E02AF09A95660F771FFC
:100DE000881FDAF7880F9695879597F90895990FD8
:100DF0000008550FAA0BE0E8FEEF16161706E807E5
:100E0000F907C0F012161306E407F50798F0621B05
:100E1000730B840B950B39F40A2661F0232B242BDA
:100E2000252B21F408950A2609F4A140A6958FEFF9
:100E3000811D811D089597F99F6780E870E060E04B
:100E400008959FEF80EC089500240A941616170663
:100E500018060906089500240A94121613061406AB
:100E600005060895092E0394000C11F4882352F00E
:100E7000BB0F40F4BF2B11F460FF04C06F5F7F4FC6
:100E80008F4F9F4F089557FD9058440F551F59F0AD
:100E90005F3F71F04795880F97FB991F61F09F3F67
:100EA00079F087950895121613061406551FF2CF90
:100EB0004695F1DF08C0161617061806991FF1CFE0
:100EC00086957105610508940895E894BB27662707
:100ED0007727CB0197F908958ADF08F48FEF0895FB
:100EE0000BD0C0CFB1DF28F0B6DF18F0952309F0A2
:100EF000A2CFA7CF1124EACFC6DFA0F3959FD1F3ED
:100F0000950F50E0551F629FF001729FBB27F00DB7
:100F1000B11D639FAA27F00DB11DAA1F649F66270C
:100F2000B00DA11D661F829F2227B00DA11D621F5B
:100F3000739FB00DA11D621F839FA00D611D221F15
:100F4000749F3327A00D611D231F849F600D211DF9
:100F5000822F762F6A2F11249F5750408AF0E1F09C
:100F600088234AF0EE0FFF1FBB1F661F771F881FE5
:100F700091505040A9F79E3F510570F05CCFA6CF2D
:100F80005F3FECF3983EDCF3869577956795B795D0
:100F9000F795E7959F5FC1F7FE2B880F911D9695FA
:0A0FA000879597F90895F894FFCFA4
:100FAA00CDCC4C3E31003200103100320008340002
:100FBA00350010340035000834003500043400359B
:100FCA0000023400350001370038001037003800BD
:0C0FDA000837003800043700380002001F
:00000001FF
