S00B00007561642E73726563DF
S113000012C02CC02BC02AC029C028C027C026C0BB
S113001025C024C023C022C021C020C01FC01EC0D0
S11300201DC01CC01BC011241FBECFE5D4E0DEBF21
S1130030CDBF10E0A0E6B0E0EAE0FFE002C005902A
S11300400D92A239B107D9F720E0A2E9B0E001C0CE
S11300501D92A23CB207E1F716D055C7D1CFAB0130
S1130060BC01411551056105710561F080E090E026
S1130070DC0100000196A11DB11D481759076A074C
S11300807B07B9F70895CF93DF9300D000D0CDB7A5
S1130090DEB7AEE6B0E012962D913C91139714961C
S11300A08C9114970F2EFDEB8F2EF0E09F2EF02DE8
S11300B04D915C91D40111965C934E9313963C93AD
S11300C02E93129714968C9349E650E020916B007E
S11300D030916C0080916D00A9EAB0E0FA01408192
S11300E0518111965C934E9313963C932E931297E1
S11300F014968C93149784E690E0FC01428153811A
S113010024810F2EFAE96F2EF0E07F2EF02D8081EE
S11301109181F3019183808350939D0040939C00CF
S113012020939E002CE830E0F901628173814481C0
S113013083EB90E020813181FC0131832083738340
S11301406283448347E850E0FA01028113816481A9
S113015028EB30E040815181F901518340831383BE
S11301600283648362E870E0FB01E280F38014811F
S113017044EA50E060817181FA0171836083F38203
S1130180E28214830DE710E0F801C280D380F4808A
S11301906EEA70E000811181FB0111830083D38238
S11301A0C282F4820F2EF8E7EF2EF0E0FF2EF02D3E
S11301B0F70100811181C280D380B4800F2EFFE942
S11301C0EF2EF0E0FF2EF02DF70111830083D38290
S11301D0C282B482EB2CE094F801F080FE20BF28A8
S11301E0B082FB01008111816481F62EF094F80144
S11301F070817F21672B6083FA0160817181448162
S1130200142F1095FB0150815123452B4083F90194
S1130210408151812481622F6095FA013081362317
S1130220232B2083FC01208131818481482F409538
S1130230F90190819423892B8083F30120813181FA
S113024080919E00482F4095F90190819423892B39
S113025080834D915C91119714968C91282F209551
S1130260DA019C919223892B8C93F401A081B181B2
S11302708481282F20959C919223892B8C93E3E7EA
S1130280F0E0A081B1818481982F90958C9189238D
S11302908C93A281B3818481982F90958C9189232A
S11302A08C9383E687B987EE86B90F2EFFE9EF2E8C
S11302B0F0E0FF2EF02D0EEA10E00F2EF8EBCF2E1B
S11302C0F0E0DF2EF02D240133243394612C60E41C
S11302D07FE180E090E0C3DE75B080906000909094
S11302E06100A0906200B0906300A501940160E0F9
S11302F070E080E89FE385D42091920030919300D0
S113030040919400509195009BD569837A838B83A7
S11303109C83672D70E080E090E0DED4A501940119
S11303208FD59B01AC0169817A818B819C816AD4D0
S1130330609396007093970080939800909399002F
S113034020E030E040E251E4C1D418160CF454C06B
S1130350D7011296ED91FC91139714968C91809588
S1130360908189238083D8011296ED91FC91139793
S113037014968C918095908189238083E091A600C6
S1130380F091A7008091A8008095908189238083B3
S1130390D6011296ED91FC91139714968C91809549
S11303A0908189238083E091B500F091B60080911B
S11303B0B7008095908189238083E0919C00F0911F
S11303C09D0080919E008095908189238083E09197
S11303D0AB00F091AC008091AD00809590818923B1
S11303E08083D2011296ED91FC91139714968C910F
S11303F080959081892380838090960090909700C7
S1130400A0909800B0909900732C20E030E040E276
S113041051E4C501B40110D518160CF0762C7720E0
S113042009F464C0732C20E030E040EF51E4C501CE
S1130430B4014CD418160CF4762C772009F456C069
S1130440D7011296ED91FC91139714962C91822F5B
S1130450809590818923822B8083D8011296ED9117
S1130460FC91139714968C918095908189238083B5
S1130470E091A600F091A7008091A800809590815A
S113048089238083D6011296ED91FC9113971496DB
S11304908C918095908189238083E091B500F091BF
S11304A0B6008091B7008095908189238083E09184
S11304B09C00F0919D0080919E00809590818923FD
S11304C08083E091AB00F091AC008091AD00809509
S11304D0908189238083D2011296ED91FC91139728
S11304E014968C91809590818923808380909600C6
S11304F090909700A0909800B0909900732C20E001
S113050030E040EF51E4C501B40196D418160CF064
S1130510762C772009F466C0732C20E030E040E7A5
S113052052E4C501B401D2D318160CF4762C77200A
S113053009F458C0D7011296ED91FC9113971496C3
S11305402C91822F809590818923822B8083D801DE
S11305501296ED91FC91139714968C91282F209567
S113056090819223892B8083E091A600F091A700CB
S11305708091A8008095908189238083D60112966A
S1130580ED91FC91139714968C9180959081892319
S11305908083E091B500F091B6008091B70080951A
S11305A0908189238083E0919C00F0919D0080914B
S11305B09E008095908189238083E091AB00F09127
S11305C0AC008091AD008095908189238083D20115
S11305D01296ED91FC91139714968C9180959081CD
S11305E0892380838090960090909700A090980033
S11305F0B0909900732C20E030E040E752E4C5014C
S1130600B4011AD418160CF0762C772009F468C0BB
S1130610732C20E030E044EB52E4C501B40156D31E
S113062018160CF4762C772009F45AC0D7011296C8
S1130630ED91FC91139714968C91282F209590811D
S11306409223892B8083D8011296ED91FC91139704
S113065014968C91282F209590819223892B808346
S1130660E091A600F091A7008091A800282F209582
S113067090819223892B8083D6011296ED91FC916F
S1130680139714968C918095908189238083E091AF
S1130690B500F091B6008091B700809590818923D0
S11306A08083E0919C00F0919D0080919E00809554
S11306B0908189238083E091AB00F091AC0080911C
S11306C0AD008095908189238083D2011296ED91AB
S11306D0FC91139714968C91809590818923808343
S11306E08090960090909700A0909800B090990008
S11306F0732C20E030E044EB52E4C501B4019CD3F8
S113070018160CF0762C772009F46AC0732C20E0BC
S113071030E040EF52E4C501B401D8D218160CF40D
S1130720762C772009F45CC0D7011296ED91FC91E8
S1130730139714968C91282F209590819223892BBE
S11307408083D8011296ED91FC91139714968C91A5
S1130750282F209590819223892B8083E091A600F5
S1130760F091A7008091A800282F209590819223D2
S1130770892B8083D6011296ED91FC9113971496E0
S11307808C91282F209590819223892B8083E0914E
S1130790B500F091B6008091B700809590818923CF
S11307A08083E0919C00F0919D0080919E00809553
S11307B0908189238083E091AB00F091AC0080911B
S11307C0AD008095908189238083D2011296ED91AA
S11307D0FC91139714968C91809590818923808342
S11307E08090960090909700A0909800B090990007
S11307F0732C20E030E040EF52E4C501B4011CD377
S113080018160CF0762C772009F46CC0732C20E0B9
S113081030E046E153E4C501B40158D218160CF493
S1130820762C772009F45EC0D7011296ED91FC91E5
S1130830139714968C91282F209590819223892BBD
S11308408083D8011296ED91FC91139714968C91A4
S1130850282F209590819223892B8083E091A600F4
S1130860F091A7008091A800282F209590819223D1
S1130870892B8083D6011296ED91FC9113971496DF
S11308808C91282F209590819223892B8083E0914D
S1130890B500F091B6008091B700282F2095908183
S11308A09223892B8083E0919C00F0919D0080919C
S11308B09E008095908189238083E091AB00F09124
S11308C0AC008091AD008095908189238083D20112
S11308D01296ED91FC91139714968C9180959081CA
S11308E0892380838090960090909700A090980030
S11308F0B0909900732C20E030E046E153E4C50148
S1130900B4019AD218160CF0762C772009F46EC034
S1130910732C20E030E044E353E4C501B401D6D1A4
S113092018160CF4762C772009F460C0D7011296BF
S1130930ED91FC91139714968C91282F209590811A
S11309409223892B8083D8011296ED91FC91139701
S113095014968C91282F209590819223892B808343
S1130960E091A600F091A7008091A800282F20957F
S113097090819223892B8083D6011296ED91FC916C
S1130980139714968C91282F209590819223892B6C
S11309908083E091B500F091B6008091B700282FD4
S11309A0209590819223892B8083E0919C00F09183
S11309B09D0080919E00282F209590819223892B61
S11309C08083E091AB00F091AC008091AD00809504
S11309D0908189238083D2011296ED91FC91139723
S11309E014968C91809590818923808380909600C1
S11309F090909700A0909800B0909900732C20E0FC
S1130A0030E044E353E4C501B40116D218160CF0E7
S1130A10762C772009F470C0732C20E030E042E596
S1130A2053E4C501B40152D118160CF4762C772086
S1130A3009F462C0D7011296ED91FC9113971496B4
S1130A408C91282F209590819223892B8083D80123
S1130A501296ED91FC91139714968C91282F209562
S1130A6090819223892B8083E091A600F091A700C6
S1130A708091A800282F209590819223892B808330
S1130A80D6011296ED91FC91139714968C91282F10
S1130A90209590819223892B8083E091B500F09179
S1130AA0B6008091B700282F209590819223892B3E
S1130AB08083E0919C00F0919D0080919E00282FFE
S1130AC0209590819223892B8083E091AB00F09153
S1130AD0AC008091AD00282F209590819223892B22
S1130AE08083D2011296ED91FC91139714968C9108
S1130AF0809590818923808320E030E042E553E4AF
S1130B00609196007091970080919800909199005F
S1130B1093D118160CF064C0D7011296ED91FC9194
S1130B20139714968C91282F209590819223892BCA
S1130B308083D8011296ED91FC91139714968C91B1
S1130B40282F209590819223892B8083E091A60001
S1130B50F091A7008091A800282F209590819223DE
S1130B60892B8083D6011296ED91FC9113971496EC
S1130B708C91282F209590819223892B8083E0915A
S1130B80B500F091B6008091B700282F2095908190
S1130B909223892B8083E0919C00F0919D008091A9
S1130BA09E00282F209590819223892B8083E091A9
S1130BB0AB00F091AC008091AD00282F209590817E
S1130BC09223892B8083D2011296ED91FC91139785
S1130BD014968C91282F209590819223892B8083C1
S1130BE08091960090919700A0919800B0919900FF
S1130BF08093920090939300A0939400B0939500F7
S1130C0066CB5058BB27AA270ED0DCC0CDD030F01D
S1130C10D2D020F031F49F3F11F41EF4C2C00EF480
S1130C20E095E7FBB8C0E92FDED080F3BA1762077E
S1130C3073078407950718F071F49EF5F6C00EF457
S1130C40E0950B2EBA2FA02D0B01B90190010C01D8
S1130C50CA01A0011124FF27591B99F0593F50F4F0
S1130C60503E68F11A16F040A22F232F342F442748
S1130C70585FF3CF469537952795A795F040539540
S1130C80C9F77EF41F16BA0B620B730B840BBAF010
S1130C909150A1F0FF0FBB1F661F771F881FC2F77B
S1130CA00EC0BA0F621F731F841F48F4879577958F
S1130CB06795B795F7959E3F08F0B3CF9395880F46
S1130CC008F09927EE0F97958795089540D008F47A
S1130CD081E00895E89409C097FB3EF490958095CF
S1130CE0709561957F4F8F4F9F4F9923A9F0F92FEE
S1130CF096E9BB279395F695879577956795B7956C
S1130D00F111F8CFFAF4BB0F11F460FF1BC06F5F51
S1130D107F4F8F4F9F4F16C0882311F096E911C063
S1130D20772321F09EE8872F762F05C0662371F084
S1130D3096E8862F70E060E02AF09A95660F771F98
S1130D40881FDAF7880F9695879597F90895990F74
S1130D500008550FAA0BE0E8FEEF16161706E80781
S1130D60F907C0F012161306E407F50798F0621BA2
S1130D70730B840B950B39F40A2661F0232B242B77
S1130D80252B21F408950A2609F4A140A6958FEF96
S1130D90811D811D089597F99F6780E870E060E0E8
S1130DA008959FEF80EC089500240A941616170600
S1130DB018060906089500240A9412161306140648
S1130DC005060895092E0394000C11F4882352F0AB
S1130DD0BB0F40F4BF2B11F460FF04C06F5F7F4F63
S1130DE08F4F9F4F089557FD9058440F551F59F04A
S1130DF05F3F71F04795880F97FB991F61F09F3F04
S1130E0079F087950895121613061406551FF2CF2C
S1130E104695F1DF08C0161617061806991FF1CF7C
S1130E2086957105610508940895E894BB276627A3
S1130E307727CB0197F908958ADF08F48FEF089597
S1130E400BD0C0CFB1DF28F0B6DF18F0952309F03E
S1130E50A2CFA7CF1124EACFC6DFA0F3959FD1F389
S1130E60950F50E0551F629FF001729FBB27F00D54
S1130E70B11D639FAA27F00DB11DAA1F649F6627A9
S1130E80B00DA11D661F829F2227B00DA11D621FF8
S1130E90739FB00DA11D621F839FA00D611D221FB2
S1130EA0749F3327A00D611D231F849F600D211D96
S1130EB0822F762F6A2F11249F5750408AF0E1F039
S1130EC088234AF0EE0FFF1FBB1F661F771F881F82
S1130ED091505040A9F79E3F510570F05CCFA6CFCA
S1130EE05F3FECF3983EDCF3869577956795B7956D
S1130EF0F795E7959F5FC1F7FE2B880F911D969597
S10D0F00879597F90895F894FFCF40
S1130F0ACDCC4C3E3100320010310032000834009E
S1130F1A3500103400350008340035000434003537
S1130F2A0002340035000137003800103700380059
S1050F3A0800A9
S9030000FC
