:1000000012C02CC02BC02AC029C028C027C026C0BF
:1000100025C024C023C022C021C020C01FC01EC0D4
:100020001DC01CC01BC011241FBECFE5D4E0DEBF25
:10003000CDBF10E0A0E6B0E0ECE0FCE002C005902F
:100040000D92A03AB107D9F720E0A0EAB0E001C0D4
:100050001D92AC3DB207E1F716D0D6C5D1CFAB01AA
:10006000BC01411551056105710561F080E090E02A
:10007000DC0100000196A11DB11D481759076A0750
:100080007B07B9F70895CF93DF9300D000D0CDB7A9
:10009000DEB7A2E7B0E012962D913C91139714962B
:1000A0008C9114970F2EF7ED8F2EF0E09F2EF02DF0
:1000B0004D915C91D40111965C934E9313963C93B1
:1000C0002E93129714968C934DE650E020916F007A
:1000D0003091700080917100A3ECB0E0FA01408192
:1000E000518111965C934E9313963C932E931297E5
:1000F00014968C93149788E690E0FC01428153811A
:1001000024810F2EF4EB6F2EF0E07F2EF02D8081F6
:100110009181F301918380835093B7004093B6009F
:100120002093B80020E930E0F901628173814481B5
:100130008DEC90E020813181FC0131832083738339
:10014000628344834BE850E0FA01028113816481A9
:1001500022ED30E040815181F901518340831383C6
:100160000283648366E870E0FB01E280F38014811F
:100170004EEB50E060817181FA0171836083F382FC
:10018000E282148301E810E0F801C280D380F48099
:1001900068EC70E000811181FB0111830083D38240
:1001A000C282F4820F2EFCE7EF2EF0E0FF2EF02D3E
:1001B000F70100811181C280D380B4800F2EF9EB4A
:1001C000EF2EF0E0FF2EF02DF70111830083D38294
:1001D000C282B482EB2CE094F801F080FE20BF28AC
:1001E000B082FB01008111816481F62EF094F80148
:1001F00070817F21672B6083FA0160817181448166
:10020000142F1095FB0150815123452B4083F90198
:10021000408151812481622F6095FA01308136231B
:10022000232B2083FC01208131818481482F40953C
:10023000F90190819423892B8083F30120813181FE
:100240008091B800482F4095F90190819423892B23
:1002500080834D915C91119714968C91282F209555
:10026000DA019C919223892B8C93F401A081B181B6
:100270008481282F20959C919223892B8C93E7E7EA
:10028000F0E0A081B1818481982F90958C91892391
:100290008C93A281B3818481982F90958C9189232E
:1002A0008C9383E687B987EE86B9AAE9B0E0ED9131
:1002B000FC91119714968C91282F20959081922370
:1002C000892B8083A5E9B0E0ED91FC9111971496FC
:1002D0008C91282F209590819223892B80830F2E3B
:1002E000F9EBAF2EF0E0BF2EF02D08EC10E00F2E52
:1002F000F2ED8F2EF0E09F2EF02D0F2EF7ED4F2E0A
:10030000F0E05F2EF02D3324339468E070E080E05D
:1003100090E0A5DE75B0C0906400D0906500E090DC
:100320006600F0906700A701960160E070E080E849
:100330009FE3E8D22091AC003091AD004091AE0037
:100340005091AF00FED369837A838B839C83672DA2
:1003500070E080E090E041D3A7019601F2D39B01C9
:10036000AC0169817A818B819C81CDD26093B00090
:100370007093B1008093B2009093B300D5011296B0
:10038000ED91FC91139714968C918095908189231F
:100390008083D8011296ED91FC91139714968C915D
:1003A0008095908189238083E091C000F091C10005
:1003B0008091C2008095908189238083D401129618
:1003C000ED91FC91139714968C91809590818923DF
:1003D0008083E091CF00F091D0008091D100809592
:1003E000908189238083E091B600F091B7008091DD
:1003F000B8008095908189238083E091C500F091B9
:10040000C6008091C7008095908189238083D201A6
:100410001296ED91FC91139714968C918095908192
:1004200089238083C090B000D090B100E090B200EA
:10043000F090B30020E030E040E251E4C701B601A3
:10044000C6D2181624F01092A5001092A400732CA6
:1004500020E030E040E251E4C701B6016ED3181647
:100460000CF0712C772001F1732C20E030E040EF8C
:1004700051E4C701B601ABD218160CF4712C7720E9
:1004800099F0D5011296ED91FC91139714968C91E9
:10049000282F209590819223892B8083E1E0F0E042
:1004A000F093A500E093A400C090B000D090B100FC
:1004B000E090B200F090B300732C20E030E040EF09
:1004C00051E4C701B60139D318160CF0712C77200E
:1004D00001F1732C20E030E040E752E4C701B6019F
:1004E00076D218160CF4712C772099F0D801129658
:1004F000ED91FC91139714968C91282F2095908163
:100500009223892B8083E2E0F0E0F093A500E09352
:10051000A400C090B000D090B100E090B200F09084
:10052000B300732C20E030E040E752E4C701B6018D
:1005300004D318160CF0712C7720F9F0732C20E0FE
:1005400030E044EB52E4C701B60141D218160CF476
:10055000712C772091F0E091C000F091C100809162
:10056000C200282F209590819223892B808383E0DD
:1005700090E09093A5008093A400C090B000D0902C
:10058000B100E090B200F090B300732C20E030E0B6
:1005900044EB52E4C701B601D0D218160CF0712C0E
:1005A000772001F1732C20E030E040EF52E4C701E6
:1005B000B6010DD218160CF4712C772099F0D401E5
:1005C0001296ED91FC91139714968C91282F2095FB
:1005D00090819223892B8083E4E0F0E0F093A500E2
:1005E000E093A400C090B000D090B100E090B200C1
:1005F000F090B300732C20E030E040EF52E4C701EC
:10060000B6019BD218160CF0712C7720F9F0732CE0
:1006100020E030E046E153E4C701B601D8D1181616
:100620000CF4712C772091F0E091CF00F091D00084
:100630008091D100282F209590819223892B80834F
:1006400085E090E09093A5008093A400C090B00056
:10065000D090B100E090B200F090B300732C20E095
:1006600030E046E153E4C701B60167D218160CF03A
:10067000712C7720F9F0732C20E030E044E353E450
:10068000C701B601A4D118160CF4712C772091F093
:10069000E091B600F091B7008091B800282F209526
:1006A00090819223892B808386E090E09093A5002F
:1006B0008093A400C090B000D090B100E090B20050
:1006C000F090B300732C20E030E044E353E4C70122
:1006D000B60133D218160CF0712C7720F9F0732C78
:1006E00020E030E042E553E4C701B60170D11816AE
:1006F0000CF4712C772091F0E091C500F091C600C8
:100700008091C700282F209590819223892B808388
:1007100087E090E09093A5008093A40020E030E073
:1007200042E553E46091B0007091B1008091B20055
:100730009091B30002D218169CF4D2011296ED915A
:10074000FC91139714968C91282F209590819223D9
:10075000892B808388E090E09093A5008093A4008B
:100760008091B0009091B100A091B200B091B3001F
:100770008093AC009093AD00A093AE00B093AF0017
:100780008091AA009091AB0008970CF452C010928F
:10079000AB001092AA004091A0005091A10060917E
:1007A000A2007091A3008091600090916100A091DF
:1007B0006200B091630084179507A607B70788F019
:1007C0002091A4003091A5003093A9002093A800A7
:1007D0001092A7001092A600880F991FAA1FBB1F96
:1007E0001BC0880F991FAA1FBB1F84179507A60758
:1007F000B70790F02091A4003091A5003093A70096
:100800002093A6001092A9001092A80084179507C3
:10081000A607B70730F018C084179507A607B707D3
:1008200040F41092A0001092A1001092A200109229
:10083000A3002091A8003091A9008091AA00909176
:10084000AB00821793076CF0AAE9B0E01296ED9125
:10085000FC91139714968C918095908189238083C5
:100860000EC0AAE9B0E01296ED91FC911397149690
:100870008C91282F209590819223892B8083209121
:10088000A6003091A7008091AA009091AB0082173A
:1008900093076CF0A5E9B0E01296ED91FC911397E7
:1008A00014968C9180959081892380830EC0A5E950
:1008B000B0E01296ED91FC91139714968C91282F2D
:1008C000209590819223892B80838091AA0090911A
:1008D000AB0001969093AB008093AA008091A0009A
:1008E0009091A100A091A200B091A3000196A11D3A
:1008F000B11D8093A0009093A100A093A200B0939B
:10090000A30003CD5058BB27AA270ED0DCC0CDD002
:1009100030F0D2D020F031F49F3F11F41EF4C2C069
:100920000EF4E095E7FBB8C0E92FDED080F3BA17EC
:10093000620773078407950718F071F49EF5F6C0F7
:100940000EF4E0950B2EBA2FA02D0B01B9019001EA
:100950000C01CA01A0011124FF27591B99F0593F2E
:1009600050F4503E68F11A16F040A22F232F342F76
:100970004427585FF3CF469537952795A795F040C4
:100980005395C9F77EF41F16BA0B620B730B840BD9
:10099000BAF09150A1F0FF0FBB1F661F771F881F91
:1009A000C2F70EC0BA0F621F731F841F48F48795E9
:1009B00077956795B795F7959E3F08F0B3CF9395D8
:1009C000880F08F09927EE0F97958795089540D0E6
:1009D00008F481E00895E89409C097FB3EF49095EF
:1009E0008095709561957F4F8F4F9F4F9923A9F008
:1009F000F92F96E9BB279395F69587957795679597
:100A0000B795F111F8CFFAF4BB0F11F460FF1BC0DA
:100A10006F5F7F4F8F4F9F4F16C0882311F096E96D
:100A200011C0772321F09EE8872F762F05C066231B
:100A300071F096E8862F70E060E02AF09A95660FD4
:100A4000771F881FDAF7880F9695879597F908958D
:100A5000990F0008550FAA0BE0E8FEEF16161706CF
:100A6000E807F907C0F012161306E407F50798F037
:100A7000621B730B840B950B39F40A2661F0232B50
:100A8000242B252B21F408950A2609F4A140A695CC
:100A90008FEF811D811D089597F99F6780E870E0B1
:100AA00060E008959FEF80EC089500240A941616E4
:100AB000170618060906089500240A94121613064C
:100AC000140605060895092E0394000C11F48823DA
:100AD00052F0BB0F40F4BF2B11F460FF04C06F5FF6
:100AE0007F4F8F4F9F4F089557FD9058440F551FCC
:100AF00059F05F3F71F04795880F97FB991F61F0A0
:100B00009F3F79F087950895121613061406551F16
:100B1000F2CF4695F1DF08C0161617061806991F82
:100B2000F1CF86957105610508940895E894BB2777
:100B300066277727CB0197F908958ADF08F48FEFAE
:100B400008950BD0C0CFB1DF28F0B6DF18F09523A1
:100B500009F0A2CFA7CF1124EACFC6DFA0F3959F5B
:100B6000D1F3950F50E0551F629FF001729FBB2794
:100B7000F00DB11D639FAA27F00DB11DAA1F649F40
:100B80006627B00DA11D661F829F2227B00DA11DF3
:100B9000621F739FB00DA11D621F839FA00D611D79
:100BA000221F749F3327A00D611D231F849F600D9A
:100BB000211D822F762F6A2F11249F5750408AF0D3
:100BC000E1F088234AF0EE0FFF1FBB1F661F771F5F
:100BD000881F91505040A9F79E3F510570F05CCF9F
:100BE000A6CF5F3FECF3983EDCF38695779567954B
:100BF000B795F795E7959F5FC1F7FE2B880F911D7D
:0C0C00009695879597F90895F894FFCF1A
:100C0C0000E20400CDCCCC3D31003200103100327A
:100C1C00000834003500103400350008340035006D
:100C2C000434003500023400350001370038001060
:100C3C00370038000837003800043700380002004D
:00000001FF
